{
  "_format": "hh-sol-artifact-1",
  "contractName": "AugustCompute",
  "sourceName": "contracts/AugustCompute.sol",
  "abi": [
    {
      "inputs": [
        {
          "internalType": "address",
          "name": "_token",
          "type": "address"
        }
      ],
      "stateMutability": "nonpayable",
      "type": "constructor"
    },
    {
      "anonymous": false,
      "inputs": [
        {
          "indexed": true,
          "internalType": "uint256",
          "name": "inferenceId",
          "type": "uint256"
        },
        {
          "indexed": true,
          "internalType": "address",
          "name": "nodeAddress",
          "type": "address"
        },
        {
          "indexed": false,
          "internalType": "bytes",
          "name": "result",
          "type": "bytes"
        }
      ],
      "name": "InferenceCompleted",
      "type": "event"
    },
    {
      "anonymous": false,
      "inputs": [
        {
          "indexed": true,
          "internalType": "uint256",
          "name": "inferenceId",
          "type": "uint256"
        },
        {
          "indexed": true,
          "internalType": "address",
          "name": "requester",
          "type": "address"
        },
        {
          "indexed": true,
          "internalType": "address",
          "name": "nodeAddress",
          "type": "address"
        },
        {
          "indexed": false,
          "internalType": "string",
          "name": "modelId",
          "type": "string"
        },
        {
          "indexed": false,
          "internalType": "uint256",
          "name": "fee",
          "type": "uint256"
        }
      ],
      "name": "InferenceRequested",
      "type": "event"
    },
    {
      "anonymous": false,
      "inputs": [
        {
          "indexed": false,
          "internalType": "uint256",
          "name": "newMinStake",
          "type": "uint256"
        }
      ],
      "name": "MinNodeStakeUpdated",
      "type": "event"
    },
    {
      "anonymous": false,
      "inputs": [
        {
          "indexed": true,
          "internalType": "address",
          "name": "nodeAddress",
          "type": "address"
        }
      ],
      "name": "NodeDeactivated",
      "type": "event"
    },
    {
      "anonymous": false,
      "inputs": [
        {
          "indexed": true,
          "internalType": "address",
          "name": "nodeAddress",
          "type": "address"
        },
        {
          "indexed": true,
          "internalType": "address",
          "name": "owner",
          "type": "address"
        },
        {
          "indexed": false,
          "internalType": "uint256",
          "name": "stake",
          "type": "uint256"
        }
      ],
      "name": "NodeRegistered",
      "type": "event"
    },
    {
      "anonymous": false,
      "inputs": [
        {
          "indexed": true,
          "internalType": "address",
          "name": "nodeAddress",
          "type": "address"
        },
        {
          "indexed": false,
          "internalType": "uint256",
          "name": "amount",
          "type": "uint256"
        }
      ],
      "name": "NodeStakeDecreased",
      "type": "event"
    },
    {
      "anonymous": false,
      "inputs": [
        {
          "indexed": true,
          "internalType": "address",
          "name": "nodeAddress",
          "type": "address"
        },
        {
          "indexed": false,
          "internalType": "uint256",
          "name": "amount",
          "type": "uint256"
        }
      ],
      "name": "NodeStakeIncreased",
      "type": "event"
    },
    {
      "anonymous": false,
      "inputs": [
        {
          "indexed": true,
          "internalType": "address",
          "name": "nodeAddress",
          "type": "address"
        },
        {
          "indexed": false,
          "internalType": "string",
          "name": "metadata",
          "type": "string"
        },
        {
          "indexed": false,
          "internalType": "string[]",
          "name": "supportedModels",
          "type": "string[]"
        }
      ],
      "name": "NodeUpdated",
      "type": "event"
    },
    {
      "anonymous": false,
      "inputs": [
        {
          "indexed": true,
          "internalType": "address",
          "name": "previousOwner",
          "type": "address"
        },
        {
          "indexed": true,
          "internalType": "address",
          "name": "newOwner",
          "type": "address"
        }
      ],
      "name": "OwnershipTransferred",
      "type": "event"
    },
    {
      "anonymous": false,
      "inputs": [
        {
          "indexed": false,
          "internalType": "uint16",
          "name": "newFeeRate",
          "type": "uint16"
        }
      ],
      "name": "PlatformFeeRateUpdated",
      "type": "event"
    },
    {
      "inputs": [
        {
          "internalType": "uint256",
          "name": "",
          "type": "uint256"
        }
      ],
      "name": "activeNodes",
      "outputs": [
        {
          "internalType": "address",
          "name": "",
          "type": "address"
        }
      ],
      "stateMutability": "view",
      "type": "function"
    },
    {
      "inputs": [],
      "name": "deactivateNode",
      "outputs": [],
      "stateMutability": "nonpayable",
      "type": "function"
    },
    {
      "inputs": [
        {
          "internalType": "uint256",
          "name": "amount",
          "type": "uint256"
        }
      ],
      "name": "decreaseStake",
      "outputs": [],
      "stateMutability": "nonpayable",
      "type": "function"
    },
    {
      "inputs": [],
      "name": "getActiveNodeCount",
      "outputs": [
        {
          "internalType": "uint256",
          "name": "",
          "type": "uint256"
        }
      ],
      "stateMutability": "view",
      "type": "function"
    },
    {
      "inputs": [
        {
          "internalType": "uint256",
          "name": "offset",
          "type": "uint256"
        },
        {
          "internalType": "uint256",
          "name": "limit",
          "type": "uint256"
        }
      ],
      "name": "getActiveNodes",
      "outputs": [
        {
          "internalType": "address[]",
          "name": "",
          "type": "address[]"
        }
      ],
      "stateMutability": "view",
      "type": "function"
    },
    {
      "inputs": [
        {
          "internalType": "uint256",
          "name": "inferenceId",
          "type": "uint256"
        }
      ],
      "name": "getInferenceDetails",
      "outputs": [
        {
          "internalType": "address",
          "name": "requester",
          "type": "address"
        },
        {
          "internalType": "address",
          "name": "nodeAddress",
          "type": "address"
        },
        {
          "internalType": "string",
          "name": "modelId",
          "type": "string"
        },
        {
          "internalType": "uint256",
          "name": "timestamp",
          "type": "uint256"
        },
        {
          "internalType": "uint256",
          "name": "fee",
          "type": "uint256"
        },
        {
          "internalType": "bool",
          "name": "completed",
          "type": "bool"
        },
        {
          "internalType": "bytes",
          "name": "result",
          "type": "bytes"
        }
      ],
      "stateMutability": "view",
      "type": "function"
    },
    {
      "inputs": [
        {
          "internalType": "address",
          "name": "nodeAddress",
          "type": "address"
        }
      ],
      "name": "getNodeDetails",
      "outputs": [
        {
          "internalType": "address",
          "name": "owner",
          "type": "address"
        },
        {
          "internalType": "string",
          "name": "metadata",
          "type": "string"
        },
        {
          "internalType": "uint256",
          "name": "stake",
          "type": "uint256"
        },
        {
          "internalType": "uint256",
          "name": "reputation",
          "type": "uint256"
        },
        {
          "internalType": "bool",
          "name": "active",
          "type": "bool"
        },
        {
          "internalType": "string[]",
          "name": "supportedModels",
          "type": "string[]"
        }
      ],
      "stateMutability": "view",
      "type": "function"
    },
    {
      "inputs": [
        {
          "internalType": "uint256",
          "name": "amount",
          "type": "uint256"
        }
      ],
      "name": "increaseStake",
      "outputs": [],
      "stateMutability": "nonpayable",
      "type": "function"
    },
    {
      "inputs": [
        {
          "internalType": "uint256",
          "name": "",
          "type": "uint256"
        }
      ],
      "name": "inferences",
      "outputs": [
        {
          "internalType": "address",
          "name": "requester",
          "type": "address"
        },
        {
          "internalType": "address",
          "name": "nodeAddress",
          "type": "address"
        },
        {
          "internalType": "string",
          "name": "modelId",
          "type": "string"
        },
        {
          "internalType": "uint256",
          "name": "timestamp",
          "type": "uint256"
        },
        {
          "internalType": "uint256",
          "name": "fee",
          "type": "uint256"
        },
        {
          "internalType": "bool",
          "name": "completed",
          "type": "bool"
        },
        {
          "internalType": "bytes",
          "name": "result",
          "type": "bytes"
        }
      ],
      "stateMutability": "view",
      "type": "function"
    },
    {
      "inputs": [],
      "name": "minNodeStake",
      "outputs": [
        {
          "internalType": "uint256",
          "name": "",
          "type": "uint256"
        }
      ],
      "stateMutability": "view",
      "type": "function"
    },
    {
      "inputs": [
        {
          "internalType": "address",
          "name": "",
          "type": "address"
        }
      ],
      "name": "nodes",
      "outputs": [
        {
          "internalType": "address",
          "name": "owner",
          "type": "address"
        },
        {
          "internalType": "string",
          "name": "metadata",
          "type": "string"
        },
        {
          "internalType": "uint256",
          "name": "stake",
          "type": "uint256"
        },
        {
          "internalType": "uint256",
          "name": "reputation",
          "type": "uint256"
        },
        {
          "internalType": "bool",
          "name": "active",
          "type": "bool"
        }
      ],
      "stateMutability": "view",
      "type": "function"
    },
    {
      "inputs": [],
      "name": "owner",
      "outputs": [
        {
          "internalType": "address",
          "name": "",
          "type": "address"
        }
      ],
      "stateMutability": "view",
      "type": "function"
    },
    {
      "inputs": [],
      "name": "platformFeeRate",
      "outputs": [
        {
          "internalType": "uint16",
          "name": "",
          "type": "uint16"
        }
      ],
      "stateMutability": "view",
      "type": "function"
    },
    {
      "inputs": [
        {
          "internalType": "string",
          "name": "metadata",
          "type": "string"
        },
        {
          "internalType": "string[]",
          "name": "supportedModels",
          "type": "string[]"
        },
        {
          "internalType": "uint256",
          "name": "stakeAmount",
          "type": "uint256"
        }
      ],
      "name": "registerNode",
      "outputs": [],
      "stateMutability": "nonpayable",
      "type": "function"
    },
    {
      "inputs": [],
      "name": "renounceOwnership",
      "outputs": [],
      "stateMutability": "nonpayable",
      "type": "function"
    },
    {
      "inputs": [
        {
          "internalType": "address",
          "name": "nodeAddress",
          "type": "address"
        },
        {
          "internalType": "string",
          "name": "modelId",
          "type": "string"
        },
        {
          "internalType": "uint256",
          "name": "fee",
          "type": "uint256"
        }
      ],
      "name": "requestInference",
      "outputs": [
        {
          "internalType": "uint256",
          "name": "",
          "type": "uint256"
        }
      ],
      "stateMutability": "nonpayable",
      "type": "function"
    },
    {
      "inputs": [
        {
          "internalType": "uint256",
          "name": "newMinStake",
          "type": "uint256"
        }
      ],
      "name": "setMinNodeStake",
      "outputs": [],
      "stateMutability": "nonpayable",
      "type": "function"
    },
    {
      "inputs": [
        {
          "internalType": "uint16",
          "name": "newFeeRate",
          "type": "uint16"
        }
      ],
      "name": "setPlatformFeeRate",
      "outputs": [],
      "stateMutability": "nonpayable",
      "type": "function"
    },
    {
      "inputs": [
        {
          "internalType": "uint256",
          "name": "inferenceId",
          "type": "uint256"
        },
        {
          "internalType": "bytes",
          "name": "result",
          "type": "bytes"
        }
      ],
      "name": "submitInferenceResult",
      "outputs": [],
      "stateMutability": "nonpayable",
      "type": "function"
    },
    {
      "inputs": [],
      "name": "token",
      "outputs": [
        {
          "internalType": "contract IERC20",
          "name": "",
          "type": "address"
        }
      ],
      "stateMutability": "view",
      "type": "function"
    },
    {
      "inputs": [
        {
          "internalType": "address",
          "name": "newOwner",
          "type": "address"
        }
      ],
      "name": "transferOwnership",
      "outputs": [],
      "stateMutability": "nonpayable",
      "type": "function"
    },
    {
      "inputs": [
        {
          "internalType": "string",
          "name": "metadata",
          "type": "string"
        },
        {
          "internalType": "string[]",
          "name": "supportedModels",
          "type": "string[]"
        }
      ],
      "name": "updateNode",
      "outputs": [],
      "stateMutability": "nonpayable",
      "type": "function"
    },
    {
      "inputs": [
        {
          "internalType": "uint256",
          "name": "amount",
          "type": "uint256"
        },
        {
          "internalType": "address",
          "name": "recipient",
          "type": "address"
        }
      ],
      "name": "withdrawPlatformFees",
      "outputs": [],
      "stateMutability": "nonpayable",
      "type": "function"
    }
  ],
  "bytecode": "0x6080604052683635c9adc5dea000006004556101f4600560006101000a81548161ffff021916908361ffff1602179055503480156200003d57600080fd5b506040516200517b3803806200517b83398181016040528101906200006391906200027a565b62000083620000776200014460201b60201c565b6200014c60201b60201c565b60018081905550600073ffffffffffffffffffffffffffffffffffffffff168173ffffffffffffffffffffffffffffffffffffffff1603620000fc576040517f08c379a0000000000000000000000000000000000000000000000000000000008152600401620000f39062000333565b60405180910390fd5b80600260006101000a81548173ffffffffffffffffffffffffffffffffffffffff021916908373ffffffffffffffffffffffffffffffffffffffff1602179055505062000355565b600033905090565b60008060009054906101000a900473ffffffffffffffffffffffffffffffffffffffff169050816000806101000a81548173ffffffffffffffffffffffffffffffffffffffff021916908373ffffffffffffffffffffffffffffffffffffffff1602179055508173ffffffffffffffffffffffffffffffffffffffff168173ffffffffffffffffffffffffffffffffffffffff167f8be0079c531659141344cd1fd0a4f28419497f9722a3daafe3b4186f6b6457e060405160405180910390a35050565b600080fd5b600073ffffffffffffffffffffffffffffffffffffffff82169050919050565b6000620002428262000215565b9050919050565b620002548162000235565b81146200026057600080fd5b50565b600081519050620002748162000249565b92915050565b60006020828403121562000293576200029262000210565b5b6000620002a38482850162000263565b91505092915050565b600082825260208201905092915050565b7f417567757374436f6d707574653a20546f6b656e20616464726573732063616e60008201527f6e6f74206265207a65726f000000000000000000000000000000000000000000602082015250565b60006200031b602b83620002ac565b91506200032882620002bd565b604082019050919050565b600060208201905081810360008301526200034e816200030c565b9050919050565b614e1680620003656000396000f3fe608060405234801561001057600080fd5b506004361061014d5760003560e01c806396f9d983116100c3578063e8b96de11161007c578063e8b96de114610397578063eeca08f0146103b3578063eedad66b146103d1578063f2fde38b146103ed578063fa8e8c6914610409578063fc0c546a1461043f5761014d565b806396f9d983146102c0578063a7a79832146102f0578063b232347c1461030c578063bafb358114610328578063c5ea2b871461035d578063d8a2ce421461037b5761014d565b80636138f377116101155780636138f37714610226578063715018a6146102425780637a2fab1e1461024c57806384cdcf6a1461027c5780638da5cb5b1461029857806396ef592e146102b65761014d565b8063113dd8c214610152578063189a5a171461016e5780631e3731ee146101a2578063263ba957146101d85780634021a41214610208575b600080fd5b61016c60048036038101906101679190612f79565b61045d565b005b61018860048036038101906101839190613004565b610505565b604051610199959493929190613104565b60405180910390f35b6101bc60048036038101906101b7919061318a565b6105f0565b6040516101cf979695949392919061320c565b60405180910390f35b6101f260048036038101906101ed91906133be565b6107b3565b6040516101ff919061342d565b60405180910390f35b610210610ce5565b60405161021d919061342d565b60405180910390f35b610240600480360381019061023b919061352e565b610ceb565b005b61024a610fcd565b005b610266600480360381019061026191906135a6565b610fe1565b60405161027391906136a4565b60405180910390f35b610296600480360381019061029191906136c6565b611186565b005b6102a06112e0565b6040516102ad9190613706565b60405180910390f35b6102be611309565b005b6102da60048036038101906102d5919061318a565b611814565b6040516102e79190613706565b60405180910390f35b61030a6004803603810190610305919061318a565b611853565b005b610326600480360381019061032191906137c2565b61189c565b005b610342600480360381019061033d9190613004565b611c85565b6040516103549695949392919061392a565b60405180910390f35b610365611e91565b604051610372919061342d565b60405180910390f35b61039560048036038101906103909190613999565b611e9e565b005b6103b160048036038101906103ac919061318a565b612331565b005b6103bb6126f2565b6040516103c89190613a33565b60405180910390f35b6103eb60048036038101906103e6919061318a565b612706565b005b61040760048036038101906104029190613004565b612a43565b005b610423600480360381019061041e919061318a565b612ac6565b604051610436979695949392919061320c565b60405180910390f35b610447612c65565b6040516104549190613aad565b60405180910390f35b610465612c8b565b610bb88161ffff1611156104ae576040517f08c379a00000000000000000000000000000000000000000000000000000000081526004016104a590613b3a565b60405180910390fd5b80600560006101000a81548161ffff021916908361ffff1602179055507fa6fa55d48914a47f06c0bbec7ace4d1734495d92cb0e50f035b469c2a189d589816040516104fa9190613a33565b60405180910390a150565b60066020528060005260406000206000915090508060000160009054906101000a900473ffffffffffffffffffffffffffffffffffffffff169080600101805461054e90613b89565b80601f016020809104026020016040519081016040528092919081815260200182805461057a90613b89565b80156105c75780601f1061059c576101008083540402835291602001916105c7565b820191906000526020600020905b8154815290600101906020018083116105aa57829003601f168201915b5050505050908060020154908060030154908060040160009054906101000a900460ff16905085565b6000806060600080600060606000600760008a815260200190815260200160002090508060000160009054906101000a900473ffffffffffffffffffffffffffffffffffffffff168160010160009054906101000a900473ffffffffffffffffffffffffffffffffffffffff1682600201836003015484600401548560050160009054906101000a900460ff168660060184805461068d90613b89565b80601f01602080910402602001604051908101604052809291908181526020018280546106b990613b89565b80156107065780601f106106db57610100808354040283529160200191610706565b820191906000526020600020905b8154815290600101906020018083116106e957829003601f168201915b5050505050945080805461071990613b89565b80601f016020809104026020016040519081016040528092919081815260200182805461074590613b89565b80156107925780601f1061076757610100808354040283529160200191610792565b820191906000526020600020905b81548152906001019060200180831161077557829003601f168201915b50505050509050975097509750975097509750975050919395979092949650565b60006107bd612d09565b600660008573ffffffffffffffffffffffffffffffffffffffff1673ffffffffffffffffffffffffffffffffffffffff16815260200190815260200160002060040160009054906101000a900460ff1661084c576040517f08c379a000000000000000000000000000000000000000000000000000000000815260040161084390613c06565b60405180910390fd5b6000821161088f576040517f08c379a000000000000000000000000000000000000000000000000000000000815260040161088690613c98565b60405180910390fd5b6000805b600660008773ffffffffffffffffffffffffffffffffffffffff1673ffffffffffffffffffffffffffffffffffffffff1681526020019081526020016000206005018054905081101561097c578480519060200120600660008873ffffffffffffffffffffffffffffffffffffffff1673ffffffffffffffffffffffffffffffffffffffff168152602001908152602001600020600501828154811061093c5761093b613cb8565b5b906000526020600020016040516109539190613d8a565b604051809103902003610969576001915061097c565b808061097490613dd0565b915050610893565b50806109bd576040517f08c379a00000000000000000000000000000000000000000000000000000000081526004016109b490613e8a565b60405180910390fd5b600260009054906101000a900473ffffffffffffffffffffffffffffffffffffffff1673ffffffffffffffffffffffffffffffffffffffff166323b872dd3330866040518463ffffffff1660e01b8152600401610a1c93929190613eaa565b6020604051808303816000875af1158015610a3b573d6000803e3d6000fd5b505050506040513d601f19601f82011682018060405250810190610a5f9190613f0d565b610a9e576040517f08c379a0000000000000000000000000000000000000000000000000000000008152600401610a9590613fac565b60405180910390fd5b610aa86003612d58565b6000610ab46003612d6e565b90506040518060e001604052803373ffffffffffffffffffffffffffffffffffffffff1681526020018773ffffffffffffffffffffffffffffffffffffffff168152602001868152602001428152602001858152602001600015158152602001600067ffffffffffffffff811115610b2f57610b2e613293565b5b6040519080825280601f01601f191660200182016040528015610b615781602001600182028036833780820191505090505b508152506007600083815260200190815260200160002060008201518160000160006101000a81548173ffffffffffffffffffffffffffffffffffffffff021916908373ffffffffffffffffffffffffffffffffffffffff16021790555060208201518160010160006101000a81548173ffffffffffffffffffffffffffffffffffffffff021916908373ffffffffffffffffffffffffffffffffffffffff1602179055506040820151816002019081610c1b919061416e565b50606082015181600301556080820151816004015560a08201518160050160006101000a81548160ff02191690831515021790555060c0820151816006019081610c65919061429b565b509050508573ffffffffffffffffffffffffffffffffffffffff163373ffffffffffffffffffffffffffffffffffffffff16827f9ec3ed879ddd681d83fc23d2d4a66491556924602b0bfdefd6fe5c16df69cfb28888604051610cc992919061436d565b60405180910390a48092505050610cde612d7c565b9392505050565b60045481565b3373ffffffffffffffffffffffffffffffffffffffff16600660003373ffffffffffffffffffffffffffffffffffffffff1673ffffffffffffffffffffffffffffffffffffffff16815260200190815260200160002060000160009054906101000a900473ffffffffffffffffffffffffffffffffffffffff1673ffffffffffffffffffffffffffffffffffffffff1614610dbb576040517f08c379a0000000000000000000000000000000000000000000000000000000008152600401610db2906143e9565b60405180910390fd5b600660003373ffffffffffffffffffffffffffffffffffffffff1673ffffffffffffffffffffffffffffffffffffffff16815260200190815260200160002060040160009054906101000a900460ff16610e4a576040517f08c379a0000000000000000000000000000000000000000000000000000000008152600401610e4190613c06565b60405180910390fd5b6000815111610e8e576040517f08c379a0000000000000000000000000000000000000000000000000000000008152600401610e859061447b565b60405180910390fd5b6000825111610ed2576040517f08c379a0000000000000000000000000000000000000000000000000000000008152600401610ec99061450d565b60405180910390fd5b81600660003373ffffffffffffffffffffffffffffffffffffffff1673ffffffffffffffffffffffffffffffffffffffff1681526020019081526020016000206001019081610f21919061416e565b5080600660003373ffffffffffffffffffffffffffffffffffffffff1673ffffffffffffffffffffffffffffffffffffffff1681526020019081526020016000206005019080519060200190610f78929190612e51565b503373ffffffffffffffffffffffffffffffffffffffff167fa0261790c07cf9bdf91c58137563e629cc1e3f5c9600ac958295605df3b03ddb8383604051610fc192919061452d565b60405180910390a25050565b610fd5612c8b565b610fdf6000612d85565b565b6060600880549050831061104057600067ffffffffffffffff81111561100a57611009613293565b5b6040519080825280602002602001820160405280156110385781602001602082028036833780820191505090505b509050611180565b6000828461104e9190614564565b90506008805490508111156110665760088054905090505b600084826110749190614598565b905060008167ffffffffffffffff81111561109257611091613293565b5b6040519080825280602002602001820160405280156110c05781602001602082028036833780820191505090505b50905060005b8281101561117857600881886110dc9190614564565b815481106110ed576110ec613cb8565b5b9060005260206000200160009054906101000a900473ffffffffffffffffffffffffffffffffffffffff1682828151811061112b5761112a613cb8565b5b602002602001019073ffffffffffffffffffffffffffffffffffffffff16908173ffffffffffffffffffffffffffffffffffffffff1681525050808061117090613dd0565b9150506110c6565b508093505050505b92915050565b61118e612c8b565b600073ffffffffffffffffffffffffffffffffffffffff168173ffffffffffffffffffffffffffffffffffffffff16036111fd576040517f08c379a00000000000000000000000000000000000000000000000000000000081526004016111f49061463e565b60405180910390fd5b600260009054906101000a900473ffffffffffffffffffffffffffffffffffffffff1673ffffffffffffffffffffffffffffffffffffffff1663a9059cbb82846040518363ffffffff1660e01b815260040161125a92919061465e565b6020604051808303816000875af1158015611279573d6000803e3d6000fd5b505050506040513d601f19601f8201168201806040525081019061129d9190613f0d565b6112dc576040517f08c379a00000000000000000000000000000000000000000000000000000000081526004016112d390613fac565b60405180910390fd5b5050565b60008060009054906101000a900473ffffffffffffffffffffffffffffffffffffffff16905090565b611311612d09565b3373ffffffffffffffffffffffffffffffffffffffff16600660003373ffffffffffffffffffffffffffffffffffffffff1673ffffffffffffffffffffffffffffffffffffffff16815260200190815260200160002060000160009054906101000a900473ffffffffffffffffffffffffffffffffffffffff1673ffffffffffffffffffffffffffffffffffffffff16146113e1576040517f08c379a00000000000000000000000000000000000000000000000000000000081526004016113d8906143e9565b60405180910390fd5b600660003373ffffffffffffffffffffffffffffffffffffffff1673ffffffffffffffffffffffffffffffffffffffff16815260200190815260200160002060040160009054906101000a900460ff16611470576040517f08c379a0000000000000000000000000000000000000000000000000000000008152600401611467906146f9565b60405180910390fd5b6000600660003373ffffffffffffffffffffffffffffffffffffffff1673ffffffffffffffffffffffffffffffffffffffff16815260200190815260200160002060040160006101000a81548160ff0219169083151502179055506000600660003373ffffffffffffffffffffffffffffffffffffffff1673ffffffffffffffffffffffffffffffffffffffff1681526020019081526020016000206002015490506000600660003373ffffffffffffffffffffffffffffffffffffffff1673ffffffffffffffffffffffffffffffffffffffff16815260200190815260200160002060020181905550600260009054906101000a900473ffffffffffffffffffffffffffffffffffffffff1673ffffffffffffffffffffffffffffffffffffffff1663a9059cbb33836040518363ffffffff1660e01b81526004016115b792919061465e565b6020604051808303816000875af11580156115d6573d6000803e3d6000fd5b505050506040513d601f19601f820116820180604052508101906115fa9190613f0d565b611639576040517f08c379a000000000000000000000000000000000000000000000000000000000815260040161163090613fac565b60405180910390fd5b60005b6008805490508110156117c5573373ffffffffffffffffffffffffffffffffffffffff166008828154811061167457611673613cb8565b5b9060005260206000200160009054906101000a900473ffffffffffffffffffffffffffffffffffffffff1673ffffffffffffffffffffffffffffffffffffffff16036117b257600860016008805490506116ce9190614598565b815481106116df576116de613cb8565b5b9060005260206000200160009054906101000a900473ffffffffffffffffffffffffffffffffffffffff166008828154811061171e5761171d613cb8565b5b9060005260206000200160006101000a81548173ffffffffffffffffffffffffffffffffffffffff021916908373ffffffffffffffffffffffffffffffffffffffff160217905550600880548061177857611777614719565b5b6001900381819060005260206000200160006101000a81549073ffffffffffffffffffffffffffffffffffffffff021916905590556117c5565b80806117bd90613dd0565b91505061163c565b503373ffffffffffffffffffffffffffffffffffffffff167fd9957750e6343405c319eb99a4ec67fa11cfd66969318cbc71aa2d45fa53a34960405160405180910390a250611812612d7c565b565b6008818154811061182457600080fd5b906000526020600020016000915054906101000a900473ffffffffffffffffffffffffffffffffffffffff1681565b61185b612c8b565b806004819055507f42331f9ef76f23d8d68965c53de89ac452b05e80485298d56638e535b6f2891481604051611891919061342d565b60405180910390a150565b6118a4612d09565b6000600760008481526020019081526020016000209050600073ffffffffffffffffffffffffffffffffffffffff168160000160009054906101000a900473ffffffffffffffffffffffffffffffffffffffff1673ffffffffffffffffffffffffffffffffffffffff160361194e576040517f08c379a0000000000000000000000000000000000000000000000000000000008152600401611945906147ba565b60405180910390fd5b3373ffffffffffffffffffffffffffffffffffffffff168160010160009054906101000a900473ffffffffffffffffffffffffffffffffffffffff1673ffffffffffffffffffffffffffffffffffffffff16146119e0576040517f08c379a00000000000000000000000000000000000000000000000000000000081526004016119d790614826565b60405180910390fd5b8060050160009054906101000a900460ff1615611a32576040517f08c379a0000000000000000000000000000000000000000000000000000000008152600401611a29906148b8565b60405180910390fd5b6000825111611a76576040517f08c379a0000000000000000000000000000000000000000000000000000000008152600401611a6d9061494a565b60405180910390fd5b60018160050160006101000a81548160ff02191690831515021790555081816006019081611aa4919061429b565b506000612710600560009054906101000a900461ffff1661ffff168360040154611ace919061496a565b611ad891906149db565b90506000818360040154611aec9190614598565b9050600260009054906101000a900473ffffffffffffffffffffffffffffffffffffffff1673ffffffffffffffffffffffffffffffffffffffff1663a9059cbb33836040518363ffffffff1660e01b8152600401611b4b92919061465e565b6020604051808303816000875af1158015611b6a573d6000803e3d6000fd5b505050506040513d601f19601f82011682018060405250810190611b8e9190613f0d565b611bcd576040517f08c379a0000000000000000000000000000000000000000000000000000000008152600401611bc490613fac565b60405180910390fd5b6001600660003373ffffffffffffffffffffffffffffffffffffffff1673ffffffffffffffffffffffffffffffffffffffff1681526020019081526020016000206003016000828254611c209190614564565b925050819055503373ffffffffffffffffffffffffffffffffffffffff16857fd89ae54482b2b9cdcee22417e2f4b6ac06f8f29dfd1cf2f1cececdf4c342fd0286604051611c6e9190614a0c565b60405180910390a3505050611c81612d7c565b5050565b60006060600080600060606000600660008973ffffffffffffffffffffffffffffffffffffffff1673ffffffffffffffffffffffffffffffffffffffff16815260200190815260200160002090508060000160009054906101000a900473ffffffffffffffffffffffffffffffffffffffff1681600101826002015483600301548460040160009054906101000a900460ff1685600501848054611d2890613b89565b80601f0160208091040260200160405190810160405280929190818152602001828054611d5490613b89565b8015611da15780601f10611d7657610100808354040283529160200191611da1565b820191906000526020600020905b815481529060010190602001808311611d8457829003601f168201915b5050505050945080805480602002602001604051908101604052809291908181526020016000905b82821015611e75578382906000526020600020018054611de890613b89565b80601f0160208091040260200160405190810160405280929190818152602001828054611e1490613b89565b8015611e615780601f10611e3657610100808354040283529160200191611e61565b820191906000526020600020905b815481529060010190602001808311611e4457829003601f168201915b505050505081526020019060010190611dc9565b5050505090509650965096509650965096505091939550919395565b6000600880549050905090565b611ea6612d09565b600073ffffffffffffffffffffffffffffffffffffffff16600660003373ffffffffffffffffffffffffffffffffffffffff1673ffffffffffffffffffffffffffffffffffffffff16815260200190815260200160002060000160009054906101000a900473ffffffffffffffffffffffffffffffffffffffff1673ffffffffffffffffffffffffffffffffffffffff1614611f77576040517f08c379a0000000000000000000000000000000000000000000000000000000008152600401611f6e90614aa0565b60405180910390fd5b600454811015611fbc576040517f08c379a0000000000000000000000000000000000000000000000000000000008152600401611fb390614b32565b60405180910390fd5b6000825111612000576040517f08c379a0000000000000000000000000000000000000000000000000000000008152600401611ff79061447b565b60405180910390fd5b6000835111612044576040517f08c379a000000000000000000000000000000000000000000000000000000000815260040161203b9061450d565b60405180910390fd5b600260009054906101000a900473ffffffffffffffffffffffffffffffffffffffff1673ffffffffffffffffffffffffffffffffffffffff166323b872dd3330846040518463ffffffff1660e01b81526004016120a393929190613eaa565b6020604051808303816000875af11580156120c2573d6000803e3d6000fd5b505050506040513d601f19601f820116820180604052508101906120e69190613f0d565b612125576040517f08c379a000000000000000000000000000000000000000000000000000000000815260040161211c90613fac565b60405180910390fd5b6040518060c001604052803373ffffffffffffffffffffffffffffffffffffffff1681526020018481526020018281526020016000815260200160011515815260200183815250600660003373ffffffffffffffffffffffffffffffffffffffff1673ffffffffffffffffffffffffffffffffffffffff16815260200190815260200160002060008201518160000160006101000a81548173ffffffffffffffffffffffffffffffffffffffff021916908373ffffffffffffffffffffffffffffffffffffffff1602179055506020820151816001019081612207919061416e565b50604082015181600201556060820151816003015560808201518160040160006101000a81548160ff02191690831515021790555060a0820151816005019080519060200190612258929190612e51565b509050506008339080600181540180825580915050600190039060005260206000200160009091909190916101000a81548173ffffffffffffffffffffffffffffffffffffffff021916908373ffffffffffffffffffffffffffffffffffffffff1602179055503373ffffffffffffffffffffffffffffffffffffffff163373ffffffffffffffffffffffffffffffffffffffff167ff22e9632bbbe87913fdb2f413389be6b979d648eebfe4dc4d1c9fa2b14b84d608360405161231c919061342d565b60405180910390a361232c612d7c565b505050565b612339612d09565b3373ffffffffffffffffffffffffffffffffffffffff16600660003373ffffffffffffffffffffffffffffffffffffffff1673ffffffffffffffffffffffffffffffffffffffff16815260200190815260200160002060000160009054906101000a900473ffffffffffffffffffffffffffffffffffffffff1673ffffffffffffffffffffffffffffffffffffffff1614612409576040517f08c379a0000000000000000000000000000000000000000000000000000000008152600401612400906143e9565b60405180910390fd5b600660003373ffffffffffffffffffffffffffffffffffffffff1673ffffffffffffffffffffffffffffffffffffffff16815260200190815260200160002060040160009054906101000a900460ff16612498576040517f08c379a000000000000000000000000000000000000000000000000000000000815260040161248f90613c06565b60405180910390fd5b600081116124db576040517f08c379a00000000000000000000000000000000000000000000000000000000081526004016124d290614bc4565b60405180910390fd5b600081600660003373ffffffffffffffffffffffffffffffffffffffff1673ffffffffffffffffffffffffffffffffffffffff1681526020019081526020016000206002015461252b9190614598565b9050600454811015612572576040517f08c379a000000000000000000000000000000000000000000000000000000000815260040161256990614c56565b60405180910390fd5b80600660003373ffffffffffffffffffffffffffffffffffffffff1673ffffffffffffffffffffffffffffffffffffffff16815260200190815260200160002060020181905550600260009054906101000a900473ffffffffffffffffffffffffffffffffffffffff1673ffffffffffffffffffffffffffffffffffffffff1663a9059cbb33846040518363ffffffff1660e01b815260040161261692919061465e565b6020604051808303816000875af1158015612635573d6000803e3d6000fd5b505050506040513d601f19601f820116820180604052508101906126599190613f0d565b612698576040517f08c379a000000000000000000000000000000000000000000000000000000000815260040161268f90613fac565b60405180910390fd5b3373ffffffffffffffffffffffffffffffffffffffff167ff295888cc7524af8d314a291b762a4b899705e01af6f468235a323cc90191c02836040516126de919061342d565b60405180910390a2506126ef612d7c565b50565b600560009054906101000a900461ffff1681565b61270e612d09565b3373ffffffffffffffffffffffffffffffffffffffff16600660003373ffffffffffffffffffffffffffffffffffffffff1673ffffffffffffffffffffffffffffffffffffffff16815260200190815260200160002060000160009054906101000a900473ffffffffffffffffffffffffffffffffffffffff1673ffffffffffffffffffffffffffffffffffffffff16146127de576040517f08c379a00000000000000000000000000000000000000000000000000000000081526004016127d5906143e9565b60405180910390fd5b600660003373ffffffffffffffffffffffffffffffffffffffff1673ffffffffffffffffffffffffffffffffffffffff16815260200190815260200160002060040160009054906101000a900460ff1661286d576040517f08c379a000000000000000000000000000000000000000000000000000000000815260040161286490613c06565b60405180910390fd5b600081116128b0576040517f08c379a00000000000000000000000000000000000000000000000000000000081526004016128a790614bc4565b60405180910390fd5b600260009054906101000a900473ffffffffffffffffffffffffffffffffffffffff1673ffffffffffffffffffffffffffffffffffffffff166323b872dd3330846040518463ffffffff1660e01b815260040161290f93929190613eaa565b6020604051808303816000875af115801561292e573d6000803e3d6000fd5b505050506040513d601f19601f820116820180604052508101906129529190613f0d565b612991576040517f08c379a000000000000000000000000000000000000000000000000000000000815260040161298890613fac565b60405180910390fd5b80600660003373ffffffffffffffffffffffffffffffffffffffff1673ffffffffffffffffffffffffffffffffffffffff16815260200190815260200160002060020160008282546129e39190614564565b925050819055503373ffffffffffffffffffffffffffffffffffffffff167f9f90a7bd5b0829b1ebf598e1f472a1cf16f84c4be10aea77d47e01a95884735982604051612a30919061342d565b60405180910390a2612a40612d7c565b50565b612a4b612c8b565b600073ffffffffffffffffffffffffffffffffffffffff168173ffffffffffffffffffffffffffffffffffffffff1603612aba576040517f08c379a0000000000000000000000000000000000000000000000000000000008152600401612ab190614ce8565b60405180910390fd5b612ac381612d85565b50565b60076020528060005260406000206000915090508060000160009054906101000a900473ffffffffffffffffffffffffffffffffffffffff16908060010160009054906101000a900473ffffffffffffffffffffffffffffffffffffffff1690806002018054612b3590613b89565b80601f0160208091040260200160405190810160405280929190818152602001828054612b6190613b89565b8015612bae5780601f10612b8357610100808354040283529160200191612bae565b820191906000526020600020905b815481529060010190602001808311612b9157829003601f168201915b5050505050908060030154908060040154908060050160009054906101000a900460ff1690806006018054612be290613b89565b80601f0160208091040260200160405190810160405280929190818152602001828054612c0e90613b89565b8015612c5b5780601f10612c3057610100808354040283529160200191612c5b565b820191906000526020600020905b815481529060010190602001808311612c3e57829003601f168201915b5050505050905087565b600260009054906101000a900473ffffffffffffffffffffffffffffffffffffffff1681565b612c93612e49565b73ffffffffffffffffffffffffffffffffffffffff16612cb16112e0565b73ffffffffffffffffffffffffffffffffffffffff1614612d07576040517f08c379a0000000000000000000000000000000000000000000000000000000008152600401612cfe90614d54565b60405180910390fd5b565b600260015403612d4e576040517f08c379a0000000000000000000000000000000000000000000000000000000008152600401612d4590614dc0565b60405180910390fd5b6002600181905550565b6001816000016000828254019250508190555050565b600081600001549050919050565b60018081905550565b60008060009054906101000a900473ffffffffffffffffffffffffffffffffffffffff169050816000806101000a81548173ffffffffffffffffffffffffffffffffffffffff021916908373ffffffffffffffffffffffffffffffffffffffff1602179055508173ffffffffffffffffffffffffffffffffffffffff168173ffffffffffffffffffffffffffffffffffffffff167f8be0079c531659141344cd1fd0a4f28419497f9722a3daafe3b4186f6b6457e060405160405180910390a35050565b600033905090565b828054828255906000526020600020908101928215612e99579160200282015b82811115612e98578251829081612e88919061416e565b5091602001919060010190612e71565b5b509050612ea69190612eaa565b5090565b5b80821115612eca5760008181612ec19190612ece565b50600101612eab565b5090565b508054612eda90613b89565b6000825580601f10612eec5750612f0b565b601f016020900490600052602060002090810190612f0a9190612f0e565b5b50565b5b80821115612f27576000816000905550600101612f0f565b5090565b6000604051905090565b600080fd5b600080fd5b600061ffff82169050919050565b612f5681612f3f565b8114612f6157600080fd5b50565b600081359050612f7381612f4d565b92915050565b600060208284031215612f8f57612f8e612f35565b5b6000612f9d84828501612f64565b91505092915050565b600073ffffffffffffffffffffffffffffffffffffffff82169050919050565b6000612fd182612fa6565b9050919050565b612fe181612fc6565b8114612fec57600080fd5b50565b600081359050612ffe81612fd8565b92915050565b60006020828403121561301a57613019612f35565b5b600061302884828501612fef565b91505092915050565b61303a81612fc6565b82525050565b600081519050919050565b600082825260208201905092915050565b60005b8381101561307a57808201518184015260208101905061305f565b60008484015250505050565b6000601f19601f8301169050919050565b60006130a282613040565b6130ac818561304b565b93506130bc81856020860161305c565b6130c581613086565b840191505092915050565b6000819050919050565b6130e3816130d0565b82525050565b60008115159050919050565b6130fe816130e9565b82525050565b600060a0820190506131196000830188613031565b818103602083015261312b8187613097565b905061313a60408301866130da565b61314760608301856130da565b61315460808301846130f5565b9695505050505050565b613167816130d0565b811461317257600080fd5b50565b6000813590506131848161315e565b92915050565b6000602082840312156131a05761319f612f35565b5b60006131ae84828501613175565b91505092915050565b600081519050919050565b600082825260208201905092915050565b60006131de826131b7565b6131e881856131c2565b93506131f881856020860161305c565b61320181613086565b840191505092915050565b600060e082019050613221600083018a613031565b61322e6020830189613031565b81810360408301526132408188613097565b905061324f60608301876130da565b61325c60808301866130da565b61326960a08301856130f5565b81810360c083015261327b81846131d3565b905098975050505050505050565b600080fd5b600080fd5b7f4e487b7100000000000000000000000000000000000000000000000000000000600052604160045260246000fd5b6132cb82613086565b810181811067ffffffffffffffff821117156132ea576132e9613293565b5b80604052505050565b60006132fd612f2b565b905061330982826132c2565b919050565b600067ffffffffffffffff82111561332957613328613293565b5b61333282613086565b9050602081019050919050565b82818337600083830152505050565b600061336161335c8461330e565b6132f3565b90508281526020810184848401111561337d5761337c61328e565b5b61338884828561333f565b509392505050565b600082601f8301126133a5576133a4613289565b5b81356133b584826020860161334e565b91505092915050565b6000806000606084860312156133d7576133d6612f35565b5b60006133e586828701612fef565b935050602084013567ffffffffffffffff81111561340657613405612f3a565b5b61341286828701613390565b925050604061342386828701613175565b9150509250925092565b600060208201905061344260008301846130da565b92915050565b600067ffffffffffffffff82111561346357613462613293565b5b602082029050602081019050919050565b600080fd5b600061348c61348784613448565b6132f3565b905080838252602082019050602084028301858111156134af576134ae613474565b5b835b818110156134f657803567ffffffffffffffff8111156134d4576134d3613289565b5b8086016134e18982613390565b855260208501945050506020810190506134b1565b5050509392505050565b600082601f83011261351557613514613289565b5b8135613525848260208601613479565b91505092915050565b6000806040838503121561354557613544612f35565b5b600083013567ffffffffffffffff81111561356357613562612f3a565b5b61356f85828601613390565b925050602083013567ffffffffffffffff8111156135905761358f612f3a565b5b61359c85828601613500565b9150509250929050565b600080604083850312156135bd576135bc612f35565b5b60006135cb85828601613175565b92505060206135dc85828601613175565b9150509250929050565b600081519050919050565b600082825260208201905092915050565b6000819050602082019050919050565b61361b81612fc6565b82525050565b600061362d8383613612565b60208301905092915050565b6000602082019050919050565b6000613651826135e6565b61365b81856135f1565b935061366683613602565b8060005b8381101561369757815161367e8882613621565b975061368983613639565b92505060018101905061366a565b5085935050505092915050565b600060208201905081810360008301526136be8184613646565b905092915050565b600080604083850312156136dd576136dc612f35565b5b60006136eb85828601613175565b92505060206136fc85828601612fef565b9150509250929050565b600060208201905061371b6000830184613031565b92915050565b600067ffffffffffffffff82111561373c5761373b613293565b5b61374582613086565b9050602081019050919050565b600061376561376084613721565b6132f3565b9050828152602081018484840111156137815761378061328e565b5b61378c84828561333f565b509392505050565b600082601f8301126137a9576137a8613289565b5b81356137b9848260208601613752565b91505092915050565b600080604083850312156137d9576137d8612f35565b5b60006137e785828601613175565b925050602083013567ffffffffffffffff81111561380857613807612f3a565b5b61381485828601613794565b9150509250929050565b600081519050919050565b600082825260208201905092915050565b6000819050602082019050919050565b600082825260208201905092915050565b600061386682613040565b613870818561384a565b935061388081856020860161305c565b61388981613086565b840191505092915050565b60006138a0838361385b565b905092915050565b6000602082019050919050565b60006138c08261381e565b6138ca8185613829565b9350836020820285016138dc8561383a565b8060005b8581101561391857848403895281516138f98582613894565b9450613904836138a8565b925060208a019950506001810190506138e0565b50829750879550505050505092915050565b600060c08201905061393f6000830189613031565b81810360208301526139518188613097565b905061396060408301876130da565b61396d60608301866130da565b61397a60808301856130f5565b81810360a083015261398c81846138b5565b9050979650505050505050565b6000806000606084860312156139b2576139b1612f35565b5b600084013567ffffffffffffffff8111156139d0576139cf612f3a565b5b6139dc86828701613390565b935050602084013567ffffffffffffffff8111156139fd576139fc612f3a565b5b613a0986828701613500565b9250506040613a1a86828701613175565b9150509250925092565b613a2d81612f3f565b82525050565b6000602082019050613a486000830184613a24565b92915050565b6000819050919050565b6000613a73613a6e613a6984612fa6565b613a4e565b612fa6565b9050919050565b6000613a8582613a58565b9050919050565b6000613a9782613a7a565b9050919050565b613aa781613a8c565b82525050565b6000602082019050613ac26000830184613a9e565b92915050565b7f417567757374436f6d707574653a2046656520726174652063616e6e6f74206560008201527f7863656564203330250000000000000000000000000000000000000000000000602082015250565b6000613b2460298361304b565b9150613b2f82613ac8565b604082019050919050565b60006020820190508181036000830152613b5381613b17565b9050919050565b7f4e487b7100000000000000000000000000000000000000000000000000000000600052602260045260246000fd5b60006002820490506001821680613ba157607f821691505b602082108103613bb457613bb3613b5a565b5b50919050565b7f417567757374436f6d707574653a204e6f6465206e6f74206163746976650000600082015250565b6000613bf0601e8361304b565b9150613bfb82613bba565b602082019050919050565b60006020820190508181036000830152613c1f81613be3565b9050919050565b7f417567757374436f6d707574653a20466565206d75737420626520677265617460008201527f6572207468616e207a65726f0000000000000000000000000000000000000000602082015250565b6000613c82602c8361304b565b9150613c8d82613c26565b604082019050919050565b60006020820190508181036000830152613cb181613c75565b9050919050565b7f4e487b7100000000000000000000000000000000000000000000000000000000600052603260045260246000fd5b600081905092915050565b60008190508160005260206000209050919050565b60008154613d1481613b89565b613d1e8186613ce7565b94506001821660008114613d395760018114613d4e57613d81565b60ff1983168652811515820286019350613d81565b613d5785613cf2565b60005b83811015613d7957815481890152600182019150602081019050613d5a565b838801955050505b50505092915050565b6000613d968284613d07565b915081905092915050565b7f4e487b7100000000000000000000000000000000000000000000000000000000600052601160045260246000fd5b6000613ddb826130d0565b91507fffffffffffffffffffffffffffffffffffffffffffffffffffffffffffffffff8203613e0d57613e0c613da1565b5b600182019050919050565b7f417567757374436f6d707574653a204d6f64656c206e6f7420737570706f727460008201527f6564206279206e6f646500000000000000000000000000000000000000000000602082015250565b6000613e74602a8361304b565b9150613e7f82613e18565b604082019050919050565b60006020820190508181036000830152613ea381613e67565b9050919050565b6000606082019050613ebf6000830186613031565b613ecc6020830185613031565b613ed960408301846130da565b949350505050565b613eea816130e9565b8114613ef557600080fd5b50565b600081519050613f0781613ee1565b92915050565b600060208284031215613f2357613f22612f35565b5b6000613f3184828501613ef8565b91505092915050565b7f417567757374436f6d707574653a20546f6b656e207472616e7366657220666160008201527f696c656400000000000000000000000000000000000000000000000000000000602082015250565b6000613f9660248361304b565b9150613fa182613f3a565b604082019050919050565b60006020820190508181036000830152613fc581613f89565b9050919050565b60008190508160005260206000209050919050565b60006020601f8301049050919050565b600082821b905092915050565b60006008830261402e7fffffffffffffffffffffffffffffffffffffffffffffffffffffffffffffffff82613ff1565b6140388683613ff1565b95508019841693508086168417925050509392505050565b600061406b614066614061846130d0565b613a4e565b6130d0565b9050919050565b6000819050919050565b61408583614050565b61409961409182614072565b848454613ffe565b825550505050565b600090565b6140ae6140a1565b6140b981848461407c565b505050565b5b818110156140dd576140d26000826140a6565b6001810190506140bf565b5050565b601f821115614122576140f381613fcc565b6140fc84613fe1565b8101602085101561410b578190505b61411f61411785613fe1565b8301826140be565b50505b505050565b600082821c905092915050565b600061414560001984600802614127565b1980831691505092915050565b600061415e8383614134565b9150826002028217905092915050565b61417782613040565b67ffffffffffffffff8111156141905761418f613293565b5b61419a8254613b89565b6141a58282856140e1565b600060209050601f8311600181146141d857600084156141c6578287015190505b6141d08582614152565b865550614238565b601f1984166141e686613fcc565b60005b8281101561420e578489015182556001820191506020850194506020810190506141e9565b8683101561422b5784890151614227601f891682614134565b8355505b6001600288020188555050505b505050505050565b60008190508160005260206000209050919050565b601f8211156142965761426781614240565b61427084613fe1565b8101602085101561427f578190505b61429361428b85613fe1565b8301826140be565b50505b505050565b6142a4826131b7565b67ffffffffffffffff8111156142bd576142bc613293565b5b6142c78254613b89565b6142d2828285614255565b600060209050601f83116001811461430557600084156142f3578287015190505b6142fd8582614152565b865550614365565b601f19841661431386614240565b60005b8281101561433b57848901518255600182019150602085019450602081019050614316565b868310156143585784890151614354601f891682614134565b8355505b6001600288020188555050505b505050505050565b600060408201905081810360008301526143878185613097565b905061439660208301846130da565b9392505050565b7f417567757374436f6d707574653a204e6f74206e6f6465206f776e6572000000600082015250565b60006143d3601d8361304b565b91506143de8261439d565b602082019050919050565b60006020820190508181036000830152614402816143c6565b9050919050565b7f417567757374436f6d707574653a204d75737420737570706f7274206174206c60008201527f65617374206f6e65206d6f64656c000000000000000000000000000000000000602082015250565b6000614465602e8361304b565b915061447082614409565b604082019050919050565b6000602082019050818103600083015261449481614458565b9050919050565b7f417567757374436f6d707574653a204d657461646174612063616e6e6f74206260008201527f6520656d70747900000000000000000000000000000000000000000000000000602082015250565b60006144f760278361304b565b91506145028261449b565b604082019050919050565b60006020820190508181036000830152614526816144ea565b9050919050565b600060408201905081810360008301526145478185613097565b9050818103602083015261455b81846138b5565b90509392505050565b600061456f826130d0565b915061457a836130d0565b925082820190508082111561459257614591613da1565b5b92915050565b60006145a3826130d0565b91506145ae836130d0565b92508282039050818111156145c6576145c5613da1565b5b92915050565b7f417567757374436f6d707574653a20526563697069656e742063616e6e6f742060008201527f6265207a65726f20616464726573730000000000000000000000000000000000602082015250565b6000614628602f8361304b565b9150614633826145cc565b604082019050919050565b600060208201905081810360008301526146578161461b565b9050919050565b60006040820190506146736000830185613031565b61468060208301846130da565b9392505050565b7f417567757374436f6d707574653a204e6f646520616c7265616479206465616360008201527f7469766174656400000000000000000000000000000000000000000000000000602082015250565b60006146e360278361304b565b91506146ee82614687565b604082019050919050565b60006020820190508181036000830152614712816146d6565b9050919050565b7f4e487b7100000000000000000000000000000000000000000000000000000000600052603160045260246000fd5b7f417567757374436f6d707574653a20496e666572656e636520646f6573206e6f60008201527f7420657869737400000000000000000000000000000000000000000000000000602082015250565b60006147a460278361304b565b91506147af82614748565b604082019050919050565b600060208201905081810360008301526147d381614797565b9050919050565b7f417567757374436f6d707574653a204e6f742061737369676e6564206e6f6465600082015250565b600061481060208361304b565b915061481b826147da565b602082019050919050565b6000602082019050818103600083015261483f81614803565b9050919050565b7f417567757374436f6d707574653a20496e666572656e636520616c726561647960008201527f20636f6d706c6574656400000000000000000000000000000000000000000000602082015250565b60006148a2602a8361304b565b91506148ad82614846565b604082019050919050565b600060208201905081810360008301526148d181614895565b9050919050565b7f417567757374436f6d707574653a20526573756c742063616e6e6f742062652060008201527f656d707479000000000000000000000000000000000000000000000000000000602082015250565b600061493460258361304b565b915061493f826148d8565b604082019050919050565b6000602082019050818103600083015261496381614927565b9050919050565b6000614975826130d0565b9150614980836130d0565b925082820261498e816130d0565b915082820484148315176149a5576149a4613da1565b5b5092915050565b7f4e487b7100000000000000000000000000000000000000000000000000000000600052601260045260246000fd5b60006149e6826130d0565b91506149f1836130d0565b925082614a0157614a006149ac565b5b828204905092915050565b60006020820190508181036000830152614a2681846131d3565b905092915050565b7f417567757374436f6d707574653a204e6f646520616c7265616479207265676960008201527f7374657265640000000000000000000000000000000000000000000000000000602082015250565b6000614a8a60268361304b565b9150614a9582614a2e565b604082019050919050565b60006020820190508181036000830152614ab981614a7d565b9050919050565b7f417567757374436f6d707574653a205374616b6520616d6f756e7420746f6f2060008201527f6c6f770000000000000000000000000000000000000000000000000000000000602082015250565b6000614b1c60238361304b565b9150614b2782614ac0565b604082019050919050565b60006020820190508181036000830152614b4b81614b0f565b9050919050565b7f417567757374436f6d707574653a20416d6f756e74206d75737420626520677260008201527f6561746572207468616e207a65726f0000000000000000000000000000000000602082015250565b6000614bae602f8361304b565b9150614bb982614b52565b604082019050919050565b60006020820190508181036000830152614bdd81614ba1565b9050919050565b7f417567757374436f6d707574653a2052656d61696e696e67207374616b65207460008201527f6f6f206c6f770000000000000000000000000000000000000000000000000000602082015250565b6000614c4060268361304b565b9150614c4b82614be4565b604082019050919050565b60006020820190508181036000830152614c6f81614c33565b9050919050565b7f4f776e61626c653a206e6577206f776e657220697320746865207a65726f206160008201527f6464726573730000000000000000000000000000000000000000000000000000602082015250565b6000614cd260268361304b565b9150614cdd82614c76565b604082019050919050565b60006020820190508181036000830152614d0181614cc5565b9050919050565b7f4f776e61626c653a2063616c6c6572206973206e6f7420746865206f776e6572600082015250565b6000614d3e60208361304b565b9150614d4982614d08565b602082019050919050565b60006020820190508181036000830152614d6d81614d31565b9050919050565b7f5265656e7472616e637947756172643a207265656e7472616e742063616c6c00600082015250565b6000614daa601f8361304b565b9150614db582614d74565b602082019050919050565b60006020820190508181036000830152614dd981614d9d565b905091905056fea264697066735822122007e0186d8639461bc0da53ae8ed57cf1687900512fe32d19e3a6079ced7fcbdb64736f6c63430008130033",
  "linkReferences": {},
  "deployedLinkReferences": {}
}